S01E000068657861706F645F6D6F76656D656E745F66726F6E742E73726563CB
S113000071C000008EC000008CC000008AC00000D7
S113001088C0000086C0000084C0000082C00000C8
S113002080C000007EC000007CC000007AC00000D8
S113003078C0000076C0000074C0000072C00000E8
S113004070C000004EC100006CC000006AC0000017
S113005068C0000066C0000064C00000BBC40000AB
S113006060C000005EC000005CC000005AC0000018
S113007058C0000056C0000054C0000052C0000028
S1130080E3C100004EC000004CC000004AC00000A4
S113009048C0000046C0000044C0000042C0000048
S11300A040C000003EC0000082C200003AC0000010
S11300B038C0000036C0000034C000002BC300006C
S11300C030C000002EC000002CC000002AC0000078
S11300D028C0000026C0000024C0000022C0000088
S11300E020C0000011241FBECFEFD1E2DEBFCDBF80
S11300F000E00CBF12E0A0E0B2E0ECE3FAE000E0C4
S11301000BBF02C007900D92A030B107D9F723E0CE
S1130110A0E0B2E001C01D92AD38B207E1F7C2D051
S11301208BC46ECF10923D0310927A0310921E037B
S113013008958E31D0F490911E039E31B0F4E09175
S11301407A03F0E0E15EFC4F808380917A038F5F55
S113015080937A0380917A038E3111F410927A039A
S113016080911E038F5F80931E030895279A2F9812
S11301700895CF93DF9321E042E850E063E08BE001
S113018091E0CED3CBE7D3E0888321E044EC5FEF6A
S113019062E08BE091E0C4D3898320E040EB5FEF21
S11301A061E08BE091E0BCD38A8321E040E550E03C
S11301B064E088E091E0B4D38B8321E042EF5EEF0A
S11301C063E088E091E0ACD38C8320E046EB5EEF03
S11301D062E088E091E0A4D38D8321E04CED50E00F
S11301E062E081E390E09CD38E8321E042E45FEF00
S11301F061E081E390E094D38F8320E046E55FEFF4
S113020060E081E390E08CD3888720E046EF5FEFE5
S113021067E082E290E084D3C4E8D3E0888320E0FE
S11302204AEB5FEF66E082E290E07AD3898321E0D3
S113023048E750E065E082E290E072D38A8320E0F0
S11302404EE75FEF64E082E290E06AD38B8320E0C4
S113025044E75FEF63E082E290E062D38C8321E0C5
S11302604EEC5FEF62E082E290E05AD38D8320E0AF
S113027042E95FEF64E085E290E052D38E8320E0B0
S11302804EE25FEF65E085E290E04AD38F8321E0A0
S113029048ED5FEF66E085E290E042D38887DF9126
S11302A0CF9108952198199919C060DF3BDF61DF70
S11302B078942F9A2FEF89E698E12150804090405E
S11302C0E1F700C000002F982FEF89E698E1215054
S11302D080409040E1F700C00000EBCF80E090E068
S11302E008951F920F920FB60F9211240BB60F921E
S11302F02F933F934F935F938F939F93AF93BF93AA
S1130300EF93FF932F9A8091020288232CF410928A
S11303108500109284002CC0E0910202E65F809177
S11303200002E81728F52E2F30E087E0E89FF0015F
S11303301124EB5FFD4F808186FF1AC0F901EE0F97
S1130340FF1FEE0FFF1FEE0FFF1FE21BF30BEB5F10
S1130350FD4FA581B6812C9130813F7381E090E0FF
S113036002C0880F991F3A95E2F7809582238C93F7
S1130370E1E0F2E081818F5F8183E181E65F80913A
S11303800002E817A8F5809102028A308CF54091AA
S11303908400509185002E2F30E087E0E89FF00123
S11303A01124EB5FFD4F81819281840F951F9093FF
S11303B0890080938800808186FF35C0F901EE0FA3
S11303C0FF1FEE0FFF1FEE0FFF1FE21BF30BEB5F90
S11303D0FD4FA581B6813C9120812F7381E090E08F
S11303E002C0880F991F2A95E2F7832B8C931BC0B8
S11303F08091840090918500049680349C4938F45F
S113040080E49CE9909389008093880009C08091DE
S113041084009091850004969093890080938800CD
S11304208FEF80930202FF91EF91BF91AF919F9163
S11304308F915F914F913F912F910F900BBE0F9031
S11304400FBE0F901F9018951F920F920FB60F9228
S113045011240BB60F922F933F934F935F938F9377
S11304609F93AF93BF93EF93FF932F9A80910302CF
S113047088232CF410929500109294002CC0E091E3
S11304800302EC5E80910002E81728F52E2F30E07D
S113049087E0E89FF0011124EB5FFD4F808186FF28
S11304A01AC0F901EE0FFF1FEE0FFF1FEE0FFF1F23
S11304B0E21BF30BEB5FFD4FA581B6812C913081DC
S11304C03F7381E090E002C0880F991F3A95E2F7EC
S11304D0809582238C93E1E0F2E082818F5F8283B6
S11304E0E281EC5E80910002E817A8F58091030296
S11304F08A308CF540919400509195002E2F30E075
S113050087E0E89FF0011124EB5FFD4F8181928128
S1130510840F951F9093990080939800808186FFA3
S113052035C0F901EE0FFF1FEE0FFF1FEE0FFF1F87
S1130530E21BF30BEB5FFD4FA581B6813C9120815B
S11305402F7381E090E002C0880F991F2A95E2F78B
S1130550832B8C931BC080919400909195000496FA
S113056080349C4938F480E49CE99093990080930A
S1130570980009C0809194009091950004969093FE
S11305809900809398008FEF80930302FF91EF917D
S1130590BF91AF919F918F915F914F913F912F9117
S11305A00F900BBE0F900FBE0F901F9018951F92C7
S11305B00F920FB60F9211240BB60F922F933F9305
S11305C04F935F938F939F93AF93BF93EF93FF9357
S11305D02F9A8091040288232CF41092A500109283
S11305E0A4002CC0E0910402E25E80910002E817AE
S11305F028F52E2F30E087E0E89FF0011124EB5F0F
S1130600FD4F808186FF1AC0F901EE0FFF1FEE0F28
S1130610FF1FEE0FFF1FE21BF30BEB5FFD4FA581E6
S1130620B6812C9130813F7381E090E002C0880F45
S1130630991F3A95E2F7809582238C93E1E0F2E0EA
S113064083818F5F8383E381E25E80910002E817F8
S1130650A8F5809104028A308CF54091A400509151
S1130660A5002E2F30E087E0E89FF0011124EB5F16
S1130670FD4F81819281840F951F9093A9008093EF
S1130680A800808186FF35C0F901EE0FFF1FEE0F31
S1130690FF1FEE0FFF1FE21BF30BEB5FFD4FA58166
S11306A0B6813C9120812F7381E090E002C0880FD5
S11306B0991F2A95E2F7832B8C931BC08091A40089
S11306C09091A500049680349C4938F480E49CE918
S11306D09093A9008093A80009C08091A4009091F0
S11306E0A50004969093A9008093A8008FEF8093AF
S11306F00402FF91EF91BF91AF919F918F915F9110
S11307004F913F912F910F900BBE0F900FBE0F9002
S11307101F9018951F920F920FB60F9211240BB6CB
S11307200F922F933F934F935F938F939F93AF9326
S1130730BF93EF93FF932F9A8091010288232CF4A7
S113074010922501109224012BC0E09101028091A6
S11307500002E81728F52E2F30E087E0E89FF0012B
S11307601124EB5FFD4F808186FF1AC0F901EE0F63
S1130770FF1FEE0FFF1FEE0FFF1FE21BF30BEB5FDC
S1130780FD4FA581B6812C9130813F7381E090E0CB
S113079002C0880F991F3A95E2F7809582238C93C3
S11307A0E1E0F2E080818F5F8083E081809100024C
S11307B0E817A8F5809101028A308CF54091240154
S11307C0509125012E2F30E087E0E89FF00111249D
S11307D0EB5FFD4F81819281840F951F90932901D6
S11307E080932801808186FF35C0F901EE0FFF1F39
S11307F0EE0FFF1FEE0FFF1FE21BF30BEB5FFD4F2E
S1130800A581B6813C9120812F7381E090E002C0E4
S1130810880F991F2A95E2F7832B8C931BC0809134
S1130820240190912501049680349C4938F480E495
S11308309CE9909329018093280109C080912401A7
S113084090912501049690932901809328018FEFBC
S113085080930102FF91EF91BF91AF919F918F918E
S11308605F914F913F912F910F900BBE0F900FBE50
S11308700F901F901895813079F41092800082E0D7
S1130880809381001092850010928400B19AEFE663
S1130890F0E08081826080830895A82FB0E0AD01EC
S11308A0440F551FCD01880F991F880F991F880F7A
S11308B0991F480F591FFD01EF5FFD4F80819A0179
S11308C0280F311D87FD3A95F901EE0FFF1FEE0F3A
S11308D0FF1FEE0FFF1FE21BF30BEB5FFD4F808149
S11308E086FD1AC089E0AF5FBD4F9C919A01290F24
S11308F0311D97FD3A95F901EE0FFF1FEE0FFF1F13
S1130900EE0FFF1FE21BF30BEB5FFD4F908196FD93
S113091005C0815051F7089581E0089581E008955C
S1130920EF92FF920F931F93CF93DF932F9AC0916F
S11309300002C83208F045C031E03C0F3093000299
S11309400C2F10E037E0C39FF0011124EB5FFD4F43
S1130950A8EBBBE0B283A183A82FB92F3E91EE246C
S1130960E394F12C062E02C0EE0CFF1C0A94E2F76D
S1130970E32AEC926F733081307C858396835483B1
S11309804383632B20FB67F96083DDECCD9FD12D7E
S11309901124D695D695D6958D2F7FDF811102C06F
S11309A08D2F69DFF801EE0FFF1FEE0FFF1FEE0F13
S11309B0FF1FE01BF10BEB5FFD4F808180648083A0
S11309C001C0CFEF8C2FDF91CF911F910F91FF903A
S11309D0EF9008951F920F920FB60F9211240BB649
S11309E00F922F933F934F935F936F937F938F93C4
S11309F09F93AF93BF93EF93FF9380911D038F5FFA
S1130A0080931D0380911D03833019F492DB1092AF
S1130A101D03FF91EF91BF91AF919F918F917F91B2
S1130A206F915F914F913F912F910F900BBE0F905B
S10F0A300FBE0F901F901895F894FFCF94
S9030000FC
