S01E000068657861706F645F6D6F76656D656E745F66726F6E742E73726563CB
S11300009CC00000BAC00000B8C00000B6C0000028
S1130010B4C00000B2C00000B0C00000AEC0000018
S1130020ACC00000AAC00000A8C00000A6C0000028
S1130030A4C00000A2C00000A0C000009EC0000038
S11300409CC00000C6C4000098C0000096C0000018
S113005094C0000092C0000090C000000C94F4080A
S11300608CC000008AC0000088C0000086C0000068
S113007084C0000082C0000080C000007EC0000078
S11300805BC500007AC0000078C0000076C00000A4
S113009074C0000072C0000070C000006EC0000098
S11300A06CC000006AC00000FAC5000066C0000011
S11300B064C0000062C0000060C00000A3C600006D
S11300C05CC000005AC0000058C0000056C00000C8
S11300D054C0000052C0000050C000004EC00000D8
S11300E04CC00000084AD73B3BCE016E84BCBFFD28
S11300F0C12F3D6C74319ABD56833DDA3D00C77FF4
S113010011BED9E4BB4C3E916BAAAABE000000808C
S11301103F072C7AA5BA6CC590DA3B9365FC8BBC7F
S113012053F810FD3C5692834DBD879D3AB63DCBA6
S1130130C9BF5BBE73DA0FC93F0011241FBECFEFE6
S1130140D1E2DEBFCDBF00E00CBF12E0A0E0B2E020
S1130150E4E2F9E100E00BBF02C007900D92A43085
S1130160B107D9F723E0A4E0B2E001C01D92A2399F
S1130170B207E1F724D40C94900C42CF10924203BE
S113018010927F031092230308958E3140F4E82FD8
S1130190F0E0EE0FFF1FED5BFC4F71836083089569
S11301A08E31D0F4909123039E31B0F4E0917F031B
S11301B0F0E0EC5DFC4F808380917F038F5F809340
S11301C07F0380917F038E3111F410927F0380911D
S11301D023038F5F8093230308958091230388234F
S11301E049F1E0914203F0E0EC5DFC4F8081909195
S11301F02303915090932303909142039F5F909324
S11302004203909142039E3111F41092420390E014
S1130210FC01EE0FFF1FED5BFC4F20813181232B8E
S113022049F0880F991FFC01ED5BFC4F0190F081B0
S1130230E02D19950895EF92FF920F931F93CF939A
S1130240DF93CDB7DEB7A4970FB6F894DEBF0FBE29
S1130250CDBF2F9A8091040281112EC080E090E0DE
S1130260A2E8B2E489839A83AB83BC8340E050E084
S113027060E071E44D835E836F83788719861A8604
S11302801B861C868B8B9C8BAD8BBE8B80E090E099
S1130290A0E0B1EC8F8B988FA98FBA8F80E090E0AB
S11302A0A0E2B2E48B8F9C8FAD8FBE8F809104024D
S11302B08F5F8093040242C180910402813051F522
S11302C080E090E0A2E8B2E489839A83AB83BC83A4
S11302D040E050E060E871E44D835E836F8378878B
S11302E019861A861B861C868B8B9C8BAD8BBE8BCA
S11302F080E090E0A0E8B1EC8F8B988FA98FBA8F43
S11303001B8E1C8E1D8E1E8E809104028F5F809327
S1130310040214C180910402823071F580E090E0FF
S1130320A2E8B2E489839A83AB83BC8340E050E0C3
S113033060E071E44D835E836F83788740E050E032
S113034060E272E449875A876B877C878B8B9C8B2E
S1130350AD8BBE8B80E090E0A0E0B1EC8F8B988FEA
S1130360A98FBA8F1B8E1C8E1D8E1E8E8091040247
S11303708F5F80930402E2C080910402833031F5E0
S113038080E090E0A2E8B2E489839A83AB83BC83E3
S11303901D821E821F82188640E050E060E272E4F3
S11303A049875A876B877C878B8B9C8BAD8BBE8BE5
S11303B01F8A188E198E1A8E1B8E1C8E1D8E1E8EF1
S11303C0809104028F5F80930402B8C0809104027C
S11303D0843071F580E090E0A2E8B2E489839A83E6
S11303E0AB83BC8340E050E060E071EC4D835E83FE
S11303F06F83788740E050E060E272E449875A876F
S11304006B877C878B8B9C8BAD8BBE8B80E090E065
S1130410A0E0B1E48F8B988FA98FBA8F1B8E1C8EAE
S11304201D8E1E8E809104028F5F8093040286C00D
S113043080910402853051F580E090E0A2E8B2E4B6
S113044089839A83AB83BC8340E050E060E871EC1D
S11304504D835E836F83788719861A861B861C8674
S11304608B8B9C8BAD8BBE8B80E090E0A0E8B1E4DD
S11304708F8B988FA98FBA8F1B8E1C8E1D8E1E8E0C
S1130480809104028F5F8093040258C0809104021B
S1130490863071F580E090E0A2E8B2E489839A8323
S11304A0AB83BC8340E050E060E071EC4D835E833D
S11304B06F83788719861A861B861C868B8B9C8B88
S11304C0AD8BBE8B80E090E0A0E0B1E48F8B988F81
S11304D0A98FBA8F80E090E0A0E2B2E48B8F9C8F6A
S11304E0AD8FBE8F809104028F5F8093040226C07B
S11304F080910402873011F580E090E0A2E8B2E434
S113050089839A83AB83BC831D821E821F821886D3
S113051019861A861B861C868B8B9C8BAD8BBE8B97
S11305201F8A188E198E1A8E80E090E0A0E2B2E441
S11305308B8F9C8FAD8FBE8F10920402BE01635FC0
S11305407F4FCE01019618D1BE01615E7F4FCE016F
S1130550439612D10F2EF0E8EF2EF3E0FF2EF02D8C
S1130560F70180816D857E8515D6F70181816F85C0
S1130570788910D6F701828169897A890BD609E8CE
S113058013E0F80180816F8D78A104D6F801818190
S113059069A17AA1FFD5F80182816BA17CA1FAD56A
S11305A0F70183816F8D78A1F5D5F701848169A165
S11305B07AA1F0D5F70185816BA17CA1EBD5F80177
S11305C083816D857E85E6D5F80184816F85788980
S11305D0E1D5F801858169897A89DCD5F7018681BD
S11305E06D857E85D7D5F70187816F857889D2D5CA
S11305F0F701808569897A89CDD5F80186816F8D67
S113060078A1C8D5F801878169A17AA1C3D5F80179
S113061080856BA17CA1BED5A4960FB6F894DEBFED
S11306200FBECDBFDF91CF911F910F91FF90EF903F
S113063008956BE171E083E0A8DD83E0B1CD089516
S1130640279A2F980895CF93DF9321E042E850E052
S113065063E08BE091E008D5C0E8D3E0888321E033
S113066044EC5FEF62E08BE091E0FED4898320E00C
S113067040EB5FEF61E08BE091E0F6D48A8321E008
S113068040E550E064E088E091E0EED48B8321E023
S113069042EF5EEF63E088E091E0E6D48C8320E0F3
S11306A046EB5EEF62E088E091E0DED48D8321E0EA
S11306B04CED50E062E081E390E0D6D48E8321E0FB
S11306C042E45FEF61E081E390E0CED48F8320E0E9
S11306D046E55FEF60E081E390E0C6D4888720E0E0
S11306E046EF5FEF67E082E290E0BED4C9E8D3E072
S11306F0888320E04AEB5FEF66E082E290E0B4D4C6
S1130700898321E048E750E065E082E290E0ACD4E0
S11307108A8320E04EE75FEF64E082E290E0A4D4B5
S11307208B8320E044E75FEF63E082E290E09CD4B7
S11307308C8321E04EEC5FEF62E082E290E094D49F
S11307408D8320E042E95FEF64E085E290E08CD4A1
S11307508E8320E04EE25FEF65E085E290E084D492
S11307608F8321E048ED5FEF66E085E290E07CD482
S11307708887DF91CF9108954F925F926F927F9215
S11307808F929F92AF92BF92CF92DF92EF92FF929D
S11307900F931F93CF93DF93CDB7DEB760970FB658
S11307A0F894DEBF0FBECDBF9E838D838B01FC0109
S11307B0C480D580E680F780408051806280738059
S11307C0A7019601C301B20159D74B015C01A301F2
S11307D09201C701B601E2D5B9D569877A878B87BB
S11307E09C8720E030E040E451E4C501B40149D5E0
S11307F069837A838B839C838090000290900102AA
S1130800A0900202B0900302ED81FE8140845184E5
S113081062847384C0900002D0900102E0900202CE
S1130820F0900302A3019201C501B4012AD56D839E
S11308307E838F839887A3019201C701B60121D5D6
S11308409B01AC016D817E818F819885ACD76D87CA
S11308507E878F87988B29813A814B815C81CA017D
S1130860B901A1D76D837E838F839887A3019201F9
S1130870C501B40106D54B015C01A3019201C70176
S1130880B601FFD49B01AC01C501B4018CD76B0147
S11308907C012D813E814F815885C701B601F2D478
S11308A0E9D76B017C016091000270910102809193
S11308B0020290910302A3019201E3D49B01AC01D3
S11308C069817A818B819C8169D540D569837A83DA
S11308D08B839C83A7019601C701B60164D74B01A2
S11308E05C0120E030E041E655E4CCD420E030E186
S11308F04DE355E4C6D42B013C0120E030E040EF49
S113090052E4C701B6014FD79B01AC01C301B20148
S113091045D5A9D46B017C01A501940160E078E080
S11309208FEC95E4AED420E030E44EEC55E436D5BB
S11309309AD42B013C012BED3FE049EC5FE3698540
S11309407A858B859C859ED421EE3EE245E652E471
S11309502AD791D5F80171836083A7019601698133
S11309607A818B819C818ED421EE3EE245E652E46D
S11309701AD781D5F8017383628321EE3EE245E6FE
S113098052E4C301B2010FD776D5F80175836483AD
S113099060960FB6F894DEBF0FBECDBFDF91CF9146
S11309A01F910F91FF90EF90DF90CF90BF90AF9089
S11309B09F908F907F906F905F904F90089547D451
S11309C03FDEDCDB40DE35DE06D4789406DC2F988F
S11309D0FDCF1F920F920FB60F9211240BB60F92F8
S11309E02F933F934F935F938F939F93AF93BF93B3
S11309F0EF93FF932F9A8091070288232CF410928F
S1130A008500109284002CC0E0910702E65F80917B
S1130A100502E81728F52E2F30E087E0E89FF00163
S1130A201124E65FFD4F808186FF1AC0F901EE0FA5
S1130A30FF1FEE0FFF1FEE0FFF1FE21BF30BE65F1E
S1130A40FD4FA581B6812C9130813F7381E090E008
S1130A5002C0880F991F3A95E2F7809582238C9300
S1130A60E6E0F2E081818F5F8183E181E65F80913E
S1130A700502E817A8F5809107028A308CF54091A9
S1130A808400509185002E2F30E087E0E89FF0012C
S1130A901124E65FFD4F81819281840F951F90930D
S1130AA0890080938800808186FF35C0F901EE0FAC
S1130AB0FF1FEE0FFF1FEE0FFF1FE21BF30BE65F9E
S1130AC0FD4FA581B6813C9120812F7381E090E098
S1130AD002C0880F991F2A95E2F7832B8C931BC0C1
S1130AE08091840090918500049680349C4938F468
S1130AF080E49CE9909389008093880009C08091E8
S1130B0084009091850004969093890080938800D6
S1130B108FEF80930702FF91EF91BF91AF919F9167
S1130B208F915F914F913F912F910F900BBE0F903A
S1130B300FBE0F901F9018951F920F920FB60F9231
S1130B4011240BB60F922F933F934F935F938F9380
S1130B509F93AF93BF93EF93FF932F9A80910802D3
S1130B6088232CF410929500109294002CC0E091EC
S1130B700802EC5E80910502E81728F52E2F30E07C
S1130B8087E0E89FF0011124E65FFD4F808186FF36
S1130B901AC0F901EE0FFF1FEE0FFF1FEE0FFF1F2C
S1130BA0E21BF30BE65FFD4FA581B6812C913081EA
S1130BB03F7381E090E002C0880F991F3A95E2F7F5
S1130BC0809582238C93E6E0F2E082818F5F8283BA
S1130BD0E281EC5E80910502E817A8F58091080295
S1130BE08A308CF540919400509195002E2F30E07E
S1130BF087E0E89FF0011124E65FFD4F8181928137
S1130C00840F951F9093990080939800808186FFAC
S1130C1035C0F901EE0FFF1FEE0FFF1FEE0FFF1F90
S1130C20E21BF30BE65FFD4FA581B6813C91208169
S1130C302F7381E090E002C0880F991F2A95E2F794
S1130C40832B8C931BC08091940090919500049603
S1130C5080349C4938F480E49CE990939900809313
S1130C60980009C080919400909195000496909307
S1130C709900809398008FEF80930802FF91EF9181
S1130C80BF91AF919F918F915F914F913F912F9120
S1130C900F900BBE0F900FBE0F901F9018951F92D0
S1130CA00F920FB60F9211240BB60F922F933F930E
S1130CB04F935F938F939F93AF93BF93EF93FF9360
S1130CC02F9A8091090288232CF41092A500109287
S1130CD0A4002CC0E0910902E25E80910502E817AD
S1130CE028F52E2F30E087E0E89FF0011124E65F1D
S1130CF0FD4F808186FF1AC0F901EE0FFF1FEE0F32
S1130D00FF1FEE0FFF1FE21BF30BE65FFD4FA581F4
S1130D10B6812C9130813F7381E090E002C0880F4E
S1130D20991F3A95E2F7809582238C93E6E0F2E0EE
S1130D3083818F5F8383E381E25E80910502E817FC
S1130D40A8F5809109028A308CF54091A400509155
S1130D50A5002E2F30E087E0E89FF0011124E65F24
S1130D60FD4F81819281840F951F9093A9008093F8
S1130D70A800808186FF35C0F901EE0FFF1FEE0F3A
S1130D80FF1FEE0FFF1FE21BF30BE65FFD4FA58174
S1130D90B6813C9120812F7381E090E002C0880FDE
S1130DA0991F2A95E2F7832B8C931BC08091A40092
S1130DB09091A500049680349C4938F480E49CE921
S1130DC09093A9008093A80009C08091A4009091F9
S1130DD0A50004969093A9008093A8008FEF8093B8
S1130DE00902FF91EF91BF91AF919F918F915F9114
S1130DF04F913F912F910F900BBE0F900FBE0F900C
S1130E001F9018951F920F920FB60F9211240BB6D4
S1130E100F922F933F934F935F938F939F93AF932F
S1130E20BF93EF93FF932F9A8091060288232CF4AB
S1130E3010922501109224012BC0E09106028091AA
S1130E400502E81728F52E2F30E087E0E89FF0012F
S1130E501124E65FFD4F808186FF1AC0F901EE0F71
S1130E60FF1FEE0FFF1FEE0FFF1FE21BF30BE65FEA
S1130E70FD4FA581B6812C9130813F7381E090E0D4
S1130E8002C0880F991F3A95E2F7809582238C93CC
S1130E90E6E0F2E080818F5F8083E081809105024B
S1130EA0E817A8F5809106028A308CF54091240158
S1130EB0509125012E2F30E087E0E89FF0011124A6
S1130EC0E65FFD4F81819281840F951F90932901E4
S1130ED080932801808186FF35C0F901EE0FFF1F42
S1130EE0EE0FFF1FEE0FFF1FE21BF30BE65FFD4F3C
S1130EF0A581B6813C9120812F7381E090E002C0EE
S1130F00880F991F2A95E2F7832B8C931BC080913D
S1130F10240190912501049680349C4938F480E49E
S1130F209CE9909329018093280109C080912401B0
S1130F3090912501049690932901809328018FEFC5
S1130F4080930602FF91EF91BF91AF919F918F9192
S1130F505F914F913F912F910F900BBE0F900FBE59
S1130F600F901F901895813081F41092800092E0C8
S1130F70909381001092850010928400B19AEFE65C
S1130F80F0E09081926090831DC0823061F41092F1
S1130F90900080939100109295001092940088BB69
S1130FA0809371000895833069F41092A00082E068
S1130FB08093A1001092A5001092A40089BB809395
S1130FC07200089581110CC01092200182E0809378
S1130FD0210110922501109224018ABB8093730091
S1130FE00895A82FB0E0AD01440F551FCD01880F1F
S1130FF0991F880F991F880F991F480F591FFD01CA
S1131000EA5FFD4F80819A01280F311D87FD3A95D3
S1131010F901EE0FFF1FEE0FFF1FEE0FFF1FE21B84
S1131020F30BE65FFD4F808186FD1AC089E0AA5F5D
S1131030BD4F9C919A01290F311D97FD3A95F901F5
S1131040EE0FFF1FEE0FFF1FEE0FFF1FE21BF30B50
S1131050E65FFD4F908196FD05C0815051F70895DC
S113106081E0089581E00895EF92FF920F931F931A
S1131070CF93DF932F9AC0910502C83208F045C080
S113108031E03C0F309305020C2F10E037E0C39F92
S1131090F0011124E65FFD4FA8EBBBE0B283A1830E
S11310A0A82FB92F3E91EE24E394F12C062E02C012
S11310B0EE0CFF1C0A94E2F7E32AEC926F73308182
S11310C0307C8583968354834383632B20FB67F9A9
S11310D06083DDECCD9FD12D1124D695D695D69580
S11310E08D2F7FDF811102C08D2F3DDFF801EE0FC0
S11310F0FF1FEE0FFF1FEE0FFF1FE01BF10BE65F5C
S1131100FD4F80818064808301C0CFEF8C2FDF91FD
S1131110CF911F910F91FF90EF9008952F9A90E037
S1131120603222E072073CF0613649E074072CF02B
S113113060E679E002C060E272E0FC01EE0FFF1F9E
S1131140EE0FFF1FEE0FFF1FE81BF90BE65FFD4FCD
S113115023813481620F731F2081222334F420E819
S11311603BE0A901461B570BBA01625071092FB726
S1131170F894FC01EE0FFF1FEE0FFF1FEE0FFF1F91
S1131180E81BF90BE65FFD4F660F771F72836183DF
S11311902FBF0895CF93C82F2F9A603282E078072B
S11311A0B4F4653B710514F064EB70E0772314F438
S11311B060E070E0072E000C880B990B8AD120E5C3
S11311C03AEF44E251E4EFD251D1605E7D4F8C2F6F
S11311D0A5DFCF91089514BC85E085BD16BC81E0E0
S11311E085BB80936E0008951F920F920FB60F92E5
S11311F011240BB60F922F933F934F935F936F93EA
S11312007F938F939F93AF93BF93EF93FF938091BB
S113121022038F5F8093220380912203833021F481
S11312200E94D00010922203FF91EF91BF91AF91E1
S11312309F918F917F916F915F914F913F912F91EA
S11312400F900BBE0F900FBE0F901F901895109229
S1131250C50087E68093C40086E08093C20088E1DD
S11312608093C10008959F939F776ED10F900020C3
S11312703AF49058A2EA2AED3FE049E450E413D04E
S1131280BAC15058BB27AA270ED0B5C1A6D130F099
S1131290ABD120F031F49F3F11F41EF476C10EF46B
S11312A0E095E7FB6CC1E92FB7D180F3BA17620769
S11312B073078407950718F071F49EF5CFC10EF4F7
S11312C0E0950B2EBA2FA02D0B01B90190010C0152
S11312D0CA01A0011124FF27591B99F0593F50F46A
S11312E0503E68F11A16F040A22F232F342F4427C2
S11312F0585FF3CF469537952795A795F0405395BA
S1131300C9F77EF41F16BA0B620B730B840BBAF089
S11313109150A1F0FF0FBB1F661F771F881FC2F7F4
S11313200EC0BA0F621F731F841F48F48795779508
S11313306795B795F7959E3F08F0B3CF9395880FBF
S113134008F09927EE0F979587950895DF93DD2789
S1131350B92FBF7740E85FE31616170648075B0707
S113136010F4D92FE3D19F938F937F936F93C0D2BF
S1131370E4EEF0E00DD13FD12F913F914F915F9179
S11313801ED2DD2349F09058A2EA2AED3FE049EC51
S11313905FE3D0785D2787DFDF912DC10CD02BC1AF
S11313A023D140F01AD130F021F45F3F19F0E7C0A7
S11313B0511155C1EAC030D198F39923C9F355238B
S11313C0B1F3951B550BBB27AA2762177307840734
S11313D038F09F5F5F4F220F331F441FAA1FA9F3EA
S11313E033D00E2E3AF0E0E830D091505040E695DC
S11313F0001CCAF729D0FE2F27D0660F771F881F3D
S1131400BB1F261737074807AB07B0E809F0BB0B2B
S1131410802DBF01FF2793585F4F2AF09E3F51054F
S113142068F0ADC01CC15F3FECF3983EDCF38695D9
S113143077956795B795F7959F5FC9F7880F911DC5
S11314409695879597F90895E1E0660F771F881FB1
S1131450BB1F621773078407BA0720F0621B730B64
S1131460840BBA0BEE1F88F7E095089504D06894B6
S1131470B111F5C00895D8D088F09F5790F0B92FD6
S11314809927B751A0F0D1F0660F771F881F991FD5
S11314901AF0BA95C9F712C0B13081F0DFD0B1E0CB
S11314A00895DCC0672F782F8827B85F39F0B93FDB
S11314B0CCF3869577956795B395D9F73EF49095D7
S11314C08095709561957F4F8F4F9F4F0895E89455
S11314D009C097FB3EF490958095709561957F4F78
S11314E08F4F9F4F9923A9F0F92F96E9BB27939526
S11314F0F695879577956795B795F111F8CFFAF436
S1131500BB0F11F460FF1BC06F5F7F4F8F4F9F4F66
S113151016C0882311F096E911C0772321F09EE8C4
S1131520872F762F05C0662371F096E8862F70E02A
S113153060E02AF09A95660F771F881FDAF7880F04
S11315409695879597F90895DF93CF931F930F93FB
S11315508B01EC01E1E1F1E01BD04DD09801AE012B
S11315608B01EC0160E070E080E89FE38ADE82D1C9
S11315709801AE010F911F91CF91DF9120C197F98E
S11315809F6780E870E060E008959FEF80EC089525
S1131590DF93CF931F930F93FF92EF92DF927B0120
S11315A08C01689405C0DA2EEF0109D1FE01E8949C
S11315B0A5912591359145915591AEF3EF0173DED7
S11315C0FE019701A801DA9479F7DF90EF90FF907C
S11315D00F911F91CF91DF91089500240A9416165C
S11315E0170618060906089500240A94121613060D
S11315F0140605060895092E0394000C11F488239B
S113160052F0BB0F40F4BF2B11F460FF04C06F5FB6
S11316107F4F8F4F9F4F089557FD9058440F551F8C
S113162059F05F3F71F04795880F97FB991F61F060
S11316309F3F79F087950895121613061406551FD7
S1131640F2CF4695F1DF08C0161617061806991F43
S1131650F1CF86957105610508940895E894BB2738
S113166066277727CB0197F90895B7DF19F0BCDF18
S113167009F08BCF84CFB901CA013DC19F775F7751
S1131680CBDF98F39923B9F35523B9F3FF279517C3
S113169058F4E52FE91BED3070F75E3B10F0F1E4F0
S11316A01CC09034E0F40AC0E92FE51BED3028F7A4
S11316B09E3B10F0F1E411C0503488F4F9EA882319
S11316C02AF09A95660F771F881FDAF744232AF0C9
S11316D05A95220F331F441FDAF79F1B5F1BFF939A
S11316E01F930F93FF92EF9279018A01BB27AB2FCF
S11316F09B01AC0166D09701A801BF937B018C01CB
S1131700AA27BA2FB901CA015CD0AF919701A801E9
S1131710EF90FF900F911F91C6DD6DDFABD04F911D
S113172040FF0895552747FD509509C09B01AC0122
S113173060E070E080E89FE331CE21CFDCC074DF4D
S1131740E8F39923D9F3940F511DBBF39150504002
S113175094F059F0882332F0660F771F881F915058
S11317605040C1F79E3F510544F7880F911D96954F
S1131770879597F908955F3FACF0983E9CF0BB279E
S1131780869577956795B79508F4B1609395C1F7F9
S1131790BB0F58F711F460FFE8CF6F5F7F4F8F4F97
S11317A09F4FE3CF5CCF0BD026CF17DF28F01CDF91
S11317B018F0952309F0E3CEE8CE112450CF2CDFA6
S11317C0A0F3959FD1F3950F50E0551F629FF00150
S11317D0729FBB27F00DB11D639FAA27F00DB11DA9
S11317E0AA1F649F6627B00DA11D661F829F222732
S11317F0B00DA11D621F739FB00DA11D621F839FB9
S1131800A00D611D221F749F3327A00D611D231F8E
S1131810849F600D211D822F762F6A2F11249F57DC
S113182050408AF0E1F088234AF0EE0FFF1FBB1FFF
S1131830661F771F881F91505040A9F79E3F51059E
S113184070F09DCE0CCF5F3FECF3983EDCF38695B1
S113185077956795B795F795E7959F5FC1F7FE2B49
S1131860880F911D9695879597F9089511F40EF4B4
S11318708CCE41C0D9DED0F39923D9F3CEF39F5750
S1131880550B87FF46D00024A0E640EA900180581B
S11318905695979528F4805C660F771F881F20F073
S11318A026173707480730F4621B730B840B202973
S11318B031294A2BA69517940794202531254A27C8
S11318C058F7660F771F881F20F026173707480739
S11318D030F4620B730B840B200D311D411DA09558
S11318E081F7B901842F9158880F969587950895AB
S11318F09B01AC0158CF9F3F31F0915020F4879564
S113190077956795B795880F911D9695879597F963
S1131910089591505040660F771F881FD2F708959D
S1071920F894FFCF65
S107192400009642E3
S9030000FC
